:100000000C942C010C9449010C9449010C94490165
:100010000C9466070C9449010C9449010C94340625
:100020000C9449010C9449010C9449010C94040668
:100030000C9449010C9449010C9449010C94490118
:100040000C9449010C9449010C94A3080C941A07D0
:100050000C9449010C944B010C9449010C944901F6
:100060000C9449010C944901424954616C696E6FCA
:100070005F76352E320A001F21232527292A2C2EB0
:1000800030313334363738393A3B3C3C3D3D3E3EE7
:100090003E3E3E3D3D3C3C3B3A39383736343331C9
:1000A000302E2C2A29272523211F1D1B1917151433
:1000B00012100E0D0B0A08070605040302020101C7
:1000C0000000000000010102020304050607080AFF
:1000D0000B0D0E1012141517191B1D1F23272A2E86
:1000E000313437393B3C3D3E3E3D3C3B3937343182
:1000F0002E2A27231F1B1714100D0A0705030201C0
:10010000000001020305070A0D1014171BFF017EF2
:1001100002F5025D03AE03E503FD03F503CD03899C
:10012000032B03BB023F02BF014301D30075003123
:10013000000900010019005000A10009018001FF21
:10014000019D022B039C03E503FE03E5039C032BA7
:10015000039D02FF016101D3006200190000001934
:10016000006200D3006101B501D103E5025202290A
:1001700002D20205002103B40308004C031103FC62
:1001800003E900AD0391026C0012010D0338036B0B
:1001900000E101E000B00348016D030A018203C1E0
:1001A0000009032000910244028101D9002A03952D
:1001B00000F4010D00BF00F0015A039000ED02C3EE
:1001C000022300F401E2037300F802B801B801B899
:1001D00001BB01C801D401DD01E001D801C301B8B0
:1001E00001B801B801B801B5019F014302BF02E4A3
:1001F000018801B701B801B801B801B801B801B868
:1002000001B801B801BE01C801D201DA01E201E87A
:1002100001EE01F101F301F301ED01E201D301C0AF
:1002200001B801B801B901C201C201B901B8014167
:10023000542B42415544380041542B4E414D4542C8
:100240004954616C696E6F00000306050C0F0A09C2
:100250000B080D0E0704010211241FBECFEFD8E0DA
:10026000DEBFCDBF11E0A0E0B1E0E2ECF3E102C0FF
:1002700005900D92A430B107D9F726E0A4E0B1E0D3
:1002800001C01D92A13FB207E1F70E9469090C94D9
:10029000DF090C9400001895CF93DF93CDB7DEB73C
:1002A00028970FB6F894DEBF0FBECDBF8091C10076
:1002B0008F778093C10010926F0010927000789435
:1002C000CE01019627E0FC0111922A95E9F7189BCF
:1002D00002C020E82F83199B03C02F8120642F8345
:1002E0004B9B03C02F8120622F834C9B03C02F8127
:1002F00020612F832DE820937A004E815F81209129
:10030000E706206420937C00889520917A0026FDE2
:10031000FCCF20917800309179003370220F331F89
:10032000220F331F242B352B3F832E832091EF0682
:10033000223008F491C04D815E812091E80620644E
:1003400020937C00889520917A0026FDFCCF209197
:100350007800309179003370242B352B3E832D8328
:100360002091EF06233008F477C04B815C81209107
:10037000E906206420937C00889520917A0026FD70
:10038000FCCF209178003091790000243695279594
:100390000794369527950794322F202D242B352B43
:1003A0003C832B832091EF06243008F455C04A810A
:1003B0005B812091EA06206420937C00889520913F
:1003C0007A0026FDFCCF20917800309179003370BF
:1003D00022953295307F3227207F3227242B352BF0
:1003E0003B832A832091EF062530B0F149815A8161
:1003F0002091EB06206420937C00889520917A0060
:1004000026FDFCCF2091780030917900207F337059
:10041000220F331F220F331F242B352B3A832983BE
:100420002091EF062630C0F049813091EC0630640F
:1004300030937C00889530917A0036FDFCCF209176
:100440007800309179003370329522952F702327F0
:100450003F702327242B29834F9915C027E420932D
:100460007C00889520917A0026FDFCCF20917800B1
:1004700030917900337040910101509102012417AD
:10048000350708F45F9A10927A00F8942091C10021
:1004900020682093C10022E020936F002093700019
:1004A0000E94900728960FB6F894DEBF0FBECDBF0E
:1004B000DF91CF910895A82FB0E0A951B94F9C9139
:1004C000923009F438C068F09430C1F058F195309A
:1004D000E9F4E091F006F0E0E958FF4F849190E0F4
:1004E00008959923B1F0913089F4E62FF0E0EE0FF2
:1004F000FF1FE959FE4F859194910895E62FF0E092
:10050000E552FF4FE4918E2F90E0089580E090E057
:100510000895E62FF0E0EE0FFF1FE553FE4F8591A3
:1005200094910895E42FF0E0EE0FFF1FE35FFE4F7C
:10053000859194910895E22FF0E0EE0FFF1FE15CAA
:10054000FE4F859194910895BF92CF92DF92EF92E2
:10055000FF920F931F93CF93DF93CDB7DEB728970A
:100560000FB6F894DEBF0FBECDBF8E010F5F1F4FD9
:1005700086E0F80111928A95E9F78091EE0682955E
:10058000807F8F838091F006823308F4A9C0AEEC9F
:10059000BA2EB80EF8E1FB1508F0A0C0F7EEDF2E7A
:1005A000DB0C9DEC899FC12C1124C2947FE0C722F3
:1005B00094E1C99E80191124C82EEE80FF80282F57
:1005C0004D2D6B2D80E00E945B02880F991F880FD4
:1005D000991F8E299F299F838E838091EF068230F9
:1005E00008F462C0ED80FE802C2D4D2D6B2D81E036
:1005F0000E945B028E299F299E838D838091EF0646
:10060000833008F451C0EB80FC802C2D4D2D6B2DD8
:1006100082E00E945B020024969587950794969548
:1006200087950794982F802D8E299F299C838B83F3
:100630008091EF068430C0F1EA80FB802C2D4D2D97
:100640006B2D83E00E945B0282959295907F9827A4
:10065000807F98278E299F299B838A838091EF062C
:10066000853010F1E980FA802C2D4D2D6B2D84E022
:100670000E945B020024969587950794969587952E
:100680000794982F802D8E299F299A8389838091A2
:10069000EF06863048F0F9802C2D4D2D6B2D85E02E
:1006A0000E945B028F298983C8010E949007809174
:1006B000F0068F5F8436B1F08093F00628960FB66F
:1006C000F894DEBF0FBECDBFDF91CF911F910F9188
:1006D000FF90EF90DF90CF90BF900895DB2C61CF1B
:1006E000B82E58CF1092F006E9CFCF93DF93CDB755
:1006F000DEB7E0970FB6F894DEBF0FBECDBF5E9AAF
:100700008DE490E09093C5008093C40088E08093CE
:10071000C100789481E0809304012FEF4EE954E208
:10072000215040405040E1F700C0000088E392E0D3
:100730000E94D6076FEF8EE994E2615080409040AE
:10074000E1F700C000008FE292E00E94D6075E98B9
:100750002FEF4EE954E2215040405040E1F700C0F5
:100760000000F89486E880937A0081E58CBD81E0F2
:100770008DBD93B189B184709270892B8F8B83B1B9
:100780008170888F2A9884E38EBD0DB407FEFDCF5B
:100790008EB5898387E680937C0080917A0080649F
:1007A00080937A0080917A0086FDFCCF8091790059
:1007B0008A838EE680937C0080917A0080648093A7
:1007C0007A0080917A0086FDFCCF8091790093B108
:1007D0009270888D892B888F8BE291E00197F1F7D9
:1007E00000C000001EBC0DB407FEFDCF8EB58B838C
:1007F0008EE680937C0080917A00806480937A00FA
:1008000080917A0086FDFCCF809179008C8399B12C
:100810009470888D892B888F8BE291E00197F1F796
:1008200000C000001EBC0DB407FEFDCF8EB58D8349
:100830008BE291E00197F1F700C000001EBC0DB4FF
:1008400007FEFDCF8EB58E838BE291E00197F1F725
:1008500000C000001EBC0DB407FEFDCF8EB58F8317
:100860008BE291E00197F1F700C000001EBC0DB4CF
:1008700007FEFDCF8EB588878BE291E00197F1F7F7
:1008800000C000001EBC0DB407FEFDCF8EB58987E9
:100890008BE291E00197F1F700C000001EBC0DB49F
:1008A00007FEFDCF8EB58A878BE291E00197F1F7C5
:1008B00000C000001EBC0DB407FEFDCF8EB58B87B7
:1008C0008BE291E00197F1F700C000001EBC0DB46F
:1008D00007FEFDCF8EB58C8783E680937C008091E8
:1008E0007A00806480937A0080917A0086FDFCCF44
:1008F00080917900898F8BE291E00197F1F700C038
:1009000000001EBC0DB407FEFDCF8EB58D878BE2B7
:1009100091E00197F1F700C000001EBC0DB407FE86
:10092000FDCF8EB58E8785E680937C0080917A001E
:10093000806480937A0080917A0086FDFCCF80915C
:1009400079008F8786E680937C0080917A008064AE
:1009500080937A0080917A0086FDFCCF80917900A7
:10096000888B80EC88BD83E284BD81E085BD5E9A82
:100970009FE327E044E0915020404040E1F700C071
:1009800000008BE291E00197F1F700C000001EBC6F
:100990000DB407FEFDCF8EB5898B8BE291E00197F8
:1009A000F1F700C000001EBC0DB407FEFDCF8EB5F0
:1009B0008A8B5E985F9A9FE327E044E09150204045
:1009C0004040E1F700C000008BE291E00197F1F7B1
:1009D00000C000001EBC0DB407FEFDCF8EB58B8B92
:1009E0008BE291E00197F1F700C000001EBC0DB44E
:1009F00007FEFDCF8EB58C8B5F985B9A9FE327E057
:100A000044E0915020404040E1F700C000008BE2FC
:100A100091E00197F1F700C000001EBC0DB407FE85
:100A2000FDCF8EB58D8B5B989FE327E044E091501E
:100A300020404040E1F700C0000093B191708F89E1
:100A4000892B8F8B8BE291E00197F1F700C00000BA
:100A50001EBC0DB407FEFDCF8EB58A8F8BE291E0F0
:100A60000197F1F700C000001EBC0DB407FEFDCFDA
:100A70008EB58B8F85E680937C0080917A008064B0
:100A800080937A0080917A0086FDFCCF8091790076
:100A90008C8F8BE291E00197F1F700C000001EBC43
:100AA0000DB407FEFDCF8EB58E8B18BC80E1809310
:100AB0007A001CBC2A9A8CE090E09093C500809349
:100AC000C40082E08093C00088E18093C1008091DF
:100AD000C00087FFFCCFFE013196CE014D962091DC
:100AE000C00025FFFCCF21912093C600E817F9072D
:100AF000B1F72091C00027FFFCCF2091C60023361C
:100B0000C1F79E012F5C3F4FDC014091C00047FFC1
:100B1000FCCF4091C6004D93442319F0A217B307B0
:100B2000A1F74091C00045FFFCCF46E34093C600CB
:100B30003099FECF4FE759EA63E0415050406040A2
:100B4000E1F700C00000E8E3F2E04091C00045FF9B
:100B5000FCCF44914093C600319642E0EF33F40756
:100B6000A1F7FC019191992349F08091C00085FF84
:100B7000FCCF9093C6002E173F07A1F75FEF6EE9F9
:100B800084E2515060408040E1F700C000001092C4
:100B9000C100E0960FB6F894DEBF0FBECDBFDF9167
:100BA000CF91089584E687BD2FE387E79BE121502D
:100BB00080409040E1F700C0000081E48093C600CF
:100BC0008091C00085FFFCCF84E58093C6002FE3B1
:100BD00087E79BE1215080409040E1F700C0000092
:100BE0008091C00087FF08958091C6008F34D9F7A7
:100BF0008091C00087FFF7CF8091C6008B3499F7B2
:100C000081E080930401089580910401882351F0CC
:100C1000309908C01092810085E08093000184E63D
:100C200087BD21C0809105019091060120910701A7
:100C300030910801821B930B97FF02C084529A4F98
:100C4000009719F0893091054CF08091ED068823CA
:100C500019F00E94A40202C00E944C018091EE068D
:100C60008F5F8093EE06189580910901882359F0D3
:100C700087B590910001891B87BD87B581110EC092
:100C8000109209010BC087B590910001890F87BDB3
:100C900087B58A3F19F481E0809309018091810032
:100CA000882321F08091ED06882309F14F991FC018
:100CB00085E880937A0087E480937C0080917A00B5
:100CC000806480937A0080917A0086FDFCCF8091C9
:100CD0007800909179009370209101013091020188
:100CE0008217930708F45F9A80E180937A00189541
:100CF0008F929F92AF92BF92CF92DF92EF92FF922C
:100D00000F931F93CF93DF935C01962E0091070101
:100D100010910801CCEDD5E0C01BD10BC0900501AE
:100D2000D0900601882483940C151D0508F0812CB1
:100D3000E92CF12CCE15DF0528F1A701B501C8017A
:100D4000855F9E4F0E94C0090E0D1F1D1093080164
:100D5000009307010C3D85E0180709F459C088206D
:100D600079F10C151D0560F10F5F1F4F10930601FF
:100D7000009305010C3D154019F5109206011092E3
:100D800005011EC0AE01B501C801855F9E4F0E94DE
:100D9000C0099C1A092D10E0BE016A0D7B1DA80137
:100DA0008BE091E00E94C0091093080100930701B5
:100DB000882051F10F5F1F4F10930601009305012A
:100DC0008091040181110EC082E08BBB809368008A
:100DD00080910401811106C0309909C08091810081
:100DE0008A3019F18091C10080628093C100DF9147
:100DF000CF911F910F91FF90EF90DF90CF90BF9018
:100E0000AF909F908F9008950C151D05C8F2D2CF1A
:100E10001092080110920701CD2891F681E090E030
:100E20009093060180930501CBCF8091EE0680FF61
:100E3000D9CFDDCF1F920F920FB60F9211242F93AF
:100E40003F938F939F93EF93FF9380910501909130
:100E500006019C012F5F3F4F30930601209305014F
:100E6000FC01E55FFE4F80818093C6008091050103
:100E7000909106018C3D25E0920709F12091070130
:100E8000309108012817390779F48091C1008F7DCE
:100E90008093C10010920801109207011092060180
:100EA0001092050110926800FF91EF919F918F9130
:100EB0003F912F910F900FBE0F901F901895109299
:100EC00006011092050180E090E0D8CF1F920F92AA
:100ED0000FB60F9211242F933F938F939F932091DE
:100EE00007013091080180910501909106012817B2
:100EF000390739F030990EC08091C100806280932B
:100F0000C1009F918F913F912F910F900FBE0F9035
:100F10001F9018958091C1008F7D8093C100F1CF03
:100F20002091EF063DEF320F333008F439C056E020
:100F3000521B573008F037C0252FE0E0DC01A20F2C
:100F4000B11D4C91F0E0E85BFD4FE491342F3295F8
:100F50003F703E27E32FF0E0E85BFD4F3491E42F34
:100F6000EF70E3272F5F273049F7F0E0E85BFD4F94
:100F7000E4912091EE06322F3F70E327F0E0E85B2A
:100F8000FD4FE49140E1249F90011124E22BDC010C
:100F90001796EC9368E0651B850F911D0C947806FD
:100FA00055E0521BC9CFE8E4F2E0E2CF0F931F9364
:100FB000CF93DF931F92CDB7DEB78C0107C061E0FE
:100FC000CE0101960E9478060F5F1F4FF8018491B1
:100FD00089838111F4CF0F90DF91CF911F910F91F1
:100FE0000895EF92FF920F931F93CF93DF9300D05A
:100FF0001F92CDB7DEB785E880937A0041E0F12CEF
:101000008E010F5F1F4F842F806480937C0080913E
:101010007A00806480937A0080917A0086FDFCCF0C
:10102000209178003091790033703A83298362E00F
:10103000C8014B830E94780699818A81EF2DF0E0E8
:10104000E85BFD4FE491292F22952F70E227F0E015
:10105000E85BFD4FE4919F70E927F0E0E85BFD4F0E
:10106000E491982F92959F70E927F0E0E85BFD4F9F
:10107000F4908F70F8264B814F5F483009F0C3CF52
:1010800080E180937A00809101018F50898361E033
:10109000C8010E947806E980EF2DF0E0E85BFD4F83
:1010A00084919E2D92959F708927E82FF0E0E85B50
:1010B000FD4FF49088B5898361E08E010F5F1F4F6B
:1010C000C8010E9478068981EE2DEF70EF25F0E0CF
:1010D000E85BFD4FE491982F92959F70E927F0E02F
:1010E000E85BFD4FE4918F70E8271982189B29C0B7
:1010F00088E08983199B02C0846089834B9B02C06E
:10110000826089834C998160F0E0E85BFD4FE49157
:10111000E827F0E0E85BFD4FE49120E1829FC00109
:101120001124E82BE98361E0C8010E9478060F9042
:101130000F900F90DF91CF911F910F91FF90EF9043
:10114000089580E0D7CF8091C60090910A0199233D
:1011500021F010920A0188BD1895982F937A933A3E
:10116000A1F48F3F91F0833A21F491E090930A012A
:101170000BC0982F937F933B39F42BB1982F990F85
:101180009871277E922B9BB91895909181009111AF
:1011900089C0982F9370913020F0933068F093308D
:1011A000F1F18695869590E0815F9D4F90930201C5
:1011B000809301015F988CC0923031F491E090935C
:1011C000ED061092F00602C01092ED061092EE06A7
:1011D0004091ED0691E0E0E02FEF290F82FF0BC078
:1011E00031E03E0FF0E0411102C0292F00C0E9516B
:1011F000F94F2083E32F86959F5F973069F7E0933F
:10120000EF06109285001092840080910301809374
:10121000810082E38093000184E687BD59C08F304E
:1012200089F040F4873071F08B3089F0833009F019
:101230004FC010C0833811F1833C51F1833409F061
:1012400047C012C088E690E00E94D60741C00E94C5
:10125000F1073EC08AE197EB909389008093880064
:101260008CE08093030134C08DE399E4909389006E
:10127000809388008BE0809303012AC082E597E089
:1012800090938900809388008BE08093030120C0B5
:101290008BED95E090938900809388008AE080939D
:1012A000030116C09FEF980F9E3F40F010928100FF
:1012B00085E08093000184E687BD0AC0982F937073
:1012C000933031F49BB1880F8871977E892B8BB94D
:1012D000189587E185B981E088B984E08BB98CE203
:1012E00084B988EF8AB98EE380937E0080E880BF5E
:1012F000F999FECF80E090E00E94C909823549F05B
:10130000F999FECF62E580E090E00E94D1090E9449
:1013100075038CE090E09093C5008093C40022E0B8
:101320002093C00088E98093C10083EA84BDC1E0B6
:10133000C5BD8BED95E09093890080938800209344
:101340006F008FEF8093B3002093B00087E080930D
:10135000B1002093700080910401882341F081E066
:1013600083BF84E88093640078948895FECF0E94C0
:10137000D205809104018111F2CFC0936C00EFCFB0
:10138000FB01DC0102C001900D9241505040D8F7A2
:101390000895F999FECF92BD81BDF89A992780B53D
:1013A0000895262FF999FECF1FBA92BD81BD20BDA9
:1013B0000FB6F894FA9AF99A0FBE01960895F89428
:0213C000FFCF5D
:0413C200050F020A07
:00000001FF
